S0170000456C6563747269635F4865617465722E737265632A
S11300000C942A000C9447000C9447000C945C0058
S11300100C9447000C9447000C9447000C949400F3
S11300200C9447000C9447000C94A3000C944700D4
S11300300C9447000C9447000C9447000C94470020
S11300400C9447000C9447000C9447000C94470010
S11300500C94470011241FBECFE5D8E0DEBFCDBF0E
S113006010E0A0E6B0E0E8ECF8E002C005900D92E4
S1130070AA36B107D9F720E0AAE6B0E001C01D9284
S1130080AB38B207E1F70E9449000C9462040C9467
S113009000000E94E00180918800813021F030F05E
S11300A0823039F0FACF0E948001F5CF0E94D1004E
S11300B0F2CF0E94DA00EFCF1F920F920FB60F9289
S11300C011242F933F934F935F936F937F938F9359
S11300D09F93AF93BF93EF93FF9380918800811117
S11300E00DC081E08093880080E090E00E94C1020E
S11300F090E090938A008093890005C081508230FB
S113010010F410928800FF91EF91BF91AF919F91ED
S11301108F917F916F915F914F913F912F910F90AC
S11301200FBE0F901F9018951F920F920FB60F924B
S113013011248F9381E080936F008F910F900FBEF5
S11301400F901F9018951F920F920FB60F921124C3
S11301502F933F938F939F93809188008150823097
S1130160B8F4809173008F5F80937300982F93701D
S113017051F420916B0030916C0091E02927309369
S11301806C0020936B00853118F081E08093880027
S11301909F918F913F912F910F900FBE0F901F90C1
S11301A018950E9469020E9453020E944A020E940A
S11301B04C0208950E944A020E944C020E9453027B
S11301C080916B0090916C00019739F480918900C3
S11301D090918A000E946B0202C00E9469020E94F0
S11301E02102813089F48091890090918A008B34B6
S11301F0910550F4059690938A008093890010929B
S113020073000E946B0214C00E943102813081F499
S11302108091890090918A008432910548F0059775
S113022090938A0080938900109273000E946B025D
S11302306091890080E090E00E94C6020895809158
S11302407100909172002091890030918A00AC0174
S11302504B5F5F4F2417350790F405978217930778
S113026038F40E944A020E944C020E9453020895EC
S11302700E944A020E9448020E9451020895059772
S11302808217930778F40E9446020E944C028091E0
S11302906B0090916C00019719F40E94510208952B
S11302A00E945302089520916A0030E0220F331F08
S11302B0820F931FFC017183608380916A008F5FBA
S11302C08A3019F080936A00089510926A000895A4
S11302D0FC01AC014C5E5F4F20E030E081919191D4
S11302E0280F391FE417F507C9F7ADECBCEC0E94E1
S11302F03F04969587959695879596958795089545
S113030080916F00813009F50E94B802BC0180E041
S113031090E00E94300320E030E040E05FE30E9480
S113032096030E94010370936E0060936D0084E74E
S113033090E00E94530184E790E00E94680190934A
S113034072008093710010926F0080916D00909103
S11303506E000E946B020E941F010E9421028130E4
S113036021F00E943102813039F40E945F02109220
S1130370730082E08093880008950E94B802BC0153
S113038080E090E00E94300320E030E040E05FE352
S11303900E9496030E940103E4E7F0E088E890E0FD
S11303A061937193E817F907D9F784E790E00E9405
S11303B06801909372008093710010926A0008950E
S11303C00E94AC020E9413020E9444020E94420254
S11303D00E944E020E9462020E94ED020E94DC0210
S11303E00E94FD021092880080E090E00E94C10209
S11303F08F3F51F080E090E00E94C10290E0909322
S11304008A008093890006C082E390E090938A007A
S1130410809389000E94BD016091890080E090E092
S11304200E94C6020895BA98B998BB98C29AC19A14
S1130430C39A789484B7806484BF8BB780628BBF7F
S11304400895B1990CC087EA91E60197F1F700C0CD
S1130450000086B38695817091E08927089580E035
S11304600895B3990DC087EA91E60197F1F700C0AA
S1130470000086B383FB992790F981E089270895CA
S113048080E00895BC9A0895BD9A0895C49A089589
S1130490C59A0895C4980895C5980895B89AC098BF
S11304A00895C09A0895C0980895813019F4C69AA1
S11304B0C7980895823011F4C79AC6980895C698CB
S11304C0C79808958FEF81BBBE9ABF9A0E945F02BE
S11304D0089512BA0895CF93DF93EC0181E00E944E
S11304E055029E01ADECBCEC0E943F0496958795A5
S11304F096958795969587959C01220F331F880FB3
S1130500991F880F991F880F991F820F931FFE014F
S1130510E81BF90BFF27E05AFF4F808182BB81EE75
S113052094E00197F1F700C0000082E00E945502B8
S1130530CE016AE070E00E942B04FB01FF27E05A21
S1130540FF4F808182BB81EE94E00197F1F700C0F8
S11305500000DF91CF9108953E9A389839983A98DF
S11305603B983C983D98309A31983298379A089540
S1130570369A309BFECF84B125B1349A90E0922B09
S113058008958EBB9FBBE09A8DB308958EBB9FBB2D
S11305906DBB0FB607FE05C08FB78F778FBF81E0A5
S11305A001C080E0E29AE19AE199FECF813019F42A
S11305B08FB780688FBF08958EB588608EBD1BBCD1
S11305C082E68ABD8EB581608EBD8EB58D7F8EBD6F
S11305D08EB584608EBD7894089583B7886083BF98
S11305E08AEF8CBF83B7816083BF83B7846083BF86
S11305F0789489B7826089BF089589B7806189BF7B
S113060008950E94750388F09F5798F0B92F992791
S1130610B751B0F0E1F0660F771F881F991F1AF0E9
S1130620BA95C9F714C0B13091F00E948F03B1E0BC
S113063008950C948F03672F782F8827B85F39F0BB
S1130640B93FCCF3869577956795B395D9F73EF482
S113065090958095709561957F4F8F4F9F4F08952A
S1130660E89409C097FB3EF4909580957095619548
S11306707F4F8F4F9F4F9923A9F0F92F96E9BB27FE
S11306809395F695879577956795B795F111F8CF7A
S1130690FAF4BB0F11F460FF1BC06F5F7F4F8F4FE5
S11306A09F4F16C0882311F096E911C0772321F0DB
S11306B09EE8872F762F05C0662371F096E8862F73
S11306C070E060E02AF09A95660F771F881FDAF7CA
S11306D0880F9695879597F9089557FD9058440F7C
S11306E0551F59F05F3F71F04795880F97FB991F8D
S11306F061F09F3F79F0879508951216130614064A
S1130700551FF2CF4695F1DF08C0161617061806D6
S1130710991FF1CF86957105610508940895E894B1
S1130720BB2766277727CB0197F908950E94A90371
S11307300C941A040E940C0438F00E94130420F054
S1130740952311F00C9403040C94090411240C94C3
S113075090030E946D0370F3959FC1F3950F50E0D1
S1130760551F629FF001729FBB27F00DB11D639F5F
S1130770AA27F00DB11DAA1F649F6627B00DA11D05
S1130780661F829F2227B00DA11D621F739FB00DAB
S1130790A11D621F839FA00D611D221F749F33271B
S11307A0A00D611D231F849F600D211D822F762FB4
S11307B06A2F11249F5750409AF0F1F088234AF091
S11307C0EE0FFF1FBB1F661F771F881F91505040FD
S11307D0A9F79E3F510580F00C9403040C949003F8
S11307E05F3FE4F3983ED4F3869577956795B79584
S11307F0F795E7959F5FC1F7FE2B880F911D96959E
S1130800879597F9089597F99F6780E870E060E00D
S113081008959FEF80EC089500240A941616170695
S113082018060906089500240A94121613061406DD
S113083005060895092E0394000C11F4882352F040
S1130840BB0F40F4BF2B11F460FF04C06F5F7F4FF8
S11308508F4F9F4F089597FB072E16F4009407D0EF
S113086077FD09D00E944E0407FC05D03EF4909514
S113087081959F4F0895709561957F4F0895A29F2C
S1130880B001B39FC001A39F700D811D1124911D60
S1130890B29F700D811D1124911D0895AA1BBB1BCD
S11308A051E107C0AA1FBB1FA617B70710F0A61B6C
S11308B0B70B881F991F5A95A9F780959095BC018D
S10B08C0CD010895F894FFCF67
S10D08C83F065B4F666D7D077F6FEE
S9030000FC
